{
  "contractName": "EthSwap",
  "abi": [
    {
      "constant": true,
      "inputs": [],
      "name": "name",
      "outputs": [
        {
          "name": "",
          "type": "string"
        }
      ],
      "payable": false,
      "stateMutability": "view",
      "type": "function"
    },
    {
      "constant": true,
      "inputs": [],
      "name": "rate",
      "outputs": [
        {
          "name": "",
          "type": "uint256"
        }
      ],
      "payable": false,
      "stateMutability": "view",
      "type": "function"
    },
    {
      "constant": true,
      "inputs": [],
      "name": "novacoin",
      "outputs": [
        {
          "name": "",
          "type": "address"
        }
      ],
      "payable": false,
      "stateMutability": "view",
      "type": "function"
    },
    {
      "inputs": [
        {
          "name": "_novacoin",
          "type": "address"
        }
      ],
      "payable": false,
      "stateMutability": "nonpayable",
      "type": "constructor"
    },
    {
      "anonymous": false,
      "inputs": [
        {
          "indexed": false,
          "name": "account",
          "type": "address"
        },
        {
          "indexed": false,
          "name": "novacoin",
          "type": "address"
        },
        {
          "indexed": false,
          "name": "amount",
          "type": "uint256"
        },
        {
          "indexed": false,
          "name": "rate",
          "type": "uint256"
        }
      ],
      "name": "TokensPurchased",
      "type": "event"
    },
    {
      "anonymous": false,
      "inputs": [
        {
          "indexed": false,
          "name": "account",
          "type": "address"
        },
        {
          "indexed": false,
          "name": "novacoin",
          "type": "address"
        },
        {
          "indexed": false,
          "name": "amount",
          "type": "uint256"
        },
        {
          "indexed": false,
          "name": "rate",
          "type": "uint256"
        }
      ],
      "name": "TokensSold",
      "type": "event"
    },
    {
      "constant": false,
      "inputs": [],
      "name": "buyTokens",
      "outputs": [],
      "payable": true,
      "stateMutability": "payable",
      "type": "function"
    },
    {
      "constant": false,
      "inputs": [
        {
          "name": "_amount",
          "type": "uint256"
        }
      ],
      "name": "sellTokens",
      "outputs": [],
      "payable": false,
      "stateMutability": "nonpayable",
      "type": "function"
    }
  ],
  "bytecode": "0x60806040526040805190810160405280601881526020017f4574685377617020496e7374616e742045786368616e676500000000000000008152506000908051906020019061004f9291906100cb565b50606460025534801561006157600080fd5b50604051602080610a978339810180604052810190808051906020019092919050505080600160006101000a81548173ffffffffffffffffffffffffffffffffffffffff021916908373ffffffffffffffffffffffffffffffffffffffff16021790555050610170565b828054600181600116156101000203166002900490600052602060002090601f016020900481019282601f1061010c57805160ff191683800117855561013a565b8280016001018555821561013a579182015b8281111561013957825182559160200191906001019061011e565b5b509050610147919061014b565b5090565b61016d91905b80821115610169576000816000905550600101610151565b5090565b90565b6109188061017f6000396000f30060806040526004361061006d576000357c0100000000000000000000000000000000000000000000000000000000900463ffffffff16806306fdde03146100725780632c4e722e1461010257806361e9c98e1461012d5780636c11bcd314610184578063d0febe4c146101b1575b600080fd5b34801561007e57600080fd5b506100876101bb565b6040518080602001828103825283818151815260200191508051906020019080838360005b838110156100c75780820151818401526020810190506100ac565b50505050905090810190601f1680156100f45780820380516001836020036101000a031916815260200191505b509250505060405180910390f35b34801561010e57600080fd5b50610117610259565b6040518082815260200191505060405180910390f35b34801561013957600080fd5b5061014261025f565b604051808273ffffffffffffffffffffffffffffffffffffffff1673ffffffffffffffffffffffffffffffffffffffff16815260200191505060405180910390f35b34801561019057600080fd5b506101af60048036038101908080359060200190929190505050610285565b005b6101b961060e565b005b60008054600181600116156101000203166002900480601f0160208091040260200160405190810160405280929190818152602001828054600181600116156101000203166002900480156102515780601f1061022657610100808354040283529160200191610251565b820191906000526020600020905b81548152906001019060200180831161023457829003601f168201915b505050505081565b60025481565b600160009054906101000a900473ffffffffffffffffffffffffffffffffffffffff1681565b600081600160009054906101000a900473ffffffffffffffffffffffffffffffffffffffff1673ffffffffffffffffffffffffffffffffffffffff166370a08231336040518263ffffffff167c0100000000000000000000000000000000000000000000000000000000028152600401808273ffffffffffffffffffffffffffffffffffffffff1673ffffffffffffffffffffffffffffffffffffffff168152602001915050602060405180830381600087803b15801561034557600080fd5b505af1158015610359573d6000803e3d6000fd5b505050506040513d602081101561036f57600080fd5b81019080805190602001909291905050501015151561038d57600080fd5b6002548281151561039a57fe5b049050803073ffffffffffffffffffffffffffffffffffffffff1631101515156103c357600080fd5b600160009054906101000a900473ffffffffffffffffffffffffffffffffffffffff1673ffffffffffffffffffffffffffffffffffffffff166323b872dd3330856040518463ffffffff167c0100000000000000000000000000000000000000000000000000000000028152600401808473ffffffffffffffffffffffffffffffffffffffff1673ffffffffffffffffffffffffffffffffffffffff1681526020018373ffffffffffffffffffffffffffffffffffffffff1673ffffffffffffffffffffffffffffffffffffffff1681526020018281526020019350505050602060405180830381600087803b1580156104bc57600080fd5b505af11580156104d0573d6000803e3d6000fd5b505050506040513d60208110156104e657600080fd5b8101908080519060200190929190505050503373ffffffffffffffffffffffffffffffffffffffff166108fc829081150290604051600060405180830381858888f1935050505015801561053e573d6000803e3d6000fd5b507f697c42d55a5e1fed3f464ec6f38b32546a0bd368dc8068b065c67566d73f329033600160009054906101000a900473ffffffffffffffffffffffffffffffffffffffff1684600254604051808573ffffffffffffffffffffffffffffffffffffffff1673ffffffffffffffffffffffffffffffffffffffff1681526020018473ffffffffffffffffffffffffffffffffffffffff1673ffffffffffffffffffffffffffffffffffffffff16815260200183815260200182815260200194505050505060405180910390a15050565b60006002543402905080600160009054906101000a900473ffffffffffffffffffffffffffffffffffffffff1673ffffffffffffffffffffffffffffffffffffffff166370a08231306040518263ffffffff167c0100000000000000000000000000000000000000000000000000000000028152600401808273ffffffffffffffffffffffffffffffffffffffff1673ffffffffffffffffffffffffffffffffffffffff168152602001915050602060405180830381600087803b1580156106d557600080fd5b505af11580156106e9573d6000803e3d6000fd5b505050506040513d60208110156106ff57600080fd5b81019080805190602001909291905050501015151561071d57600080fd5b600160009054906101000a900473ffffffffffffffffffffffffffffffffffffffff1673ffffffffffffffffffffffffffffffffffffffff1663a9059cbb33836040518363ffffffff167c0100000000000000000000000000000000000000000000000000000000028152600401808373ffffffffffffffffffffffffffffffffffffffff1673ffffffffffffffffffffffffffffffffffffffff16815260200182815260200192505050602060405180830381600087803b1580156107e257600080fd5b505af11580156107f6573d6000803e3d6000fd5b505050506040513d602081101561080c57600080fd5b8101908080519060200190929190505050507f6faf93231a456e552dbc9961f58d9713ee4f2e69d15f1975b050ef0911053a7b33600160009054906101000a900473ffffffffffffffffffffffffffffffffffffffff1683600254604051808573ffffffffffffffffffffffffffffffffffffffff1673ffffffffffffffffffffffffffffffffffffffff1681526020018473ffffffffffffffffffffffffffffffffffffffff1673ffffffffffffffffffffffffffffffffffffffff16815260200183815260200182815260200194505050505060405180910390a1505600a165627a7a72305820173283732f0999dbe73e67de69af341437cf74db3d568c6477fc2df923ac1dd30029",
  "source": "// SPDX-License-Identifier: MIT\r\npragma solidity >=0.4.21 <0.6.0;\r\n\r\nimport \"./NovaCoin.sol\";\r\n\r\ncontract EthSwap {\r\n    string public name = \"EthSwap Instant Exchange\";\r\n    NovaCoin public novacoin;\r\n    uint public rate = 100;\r\n\r\n    // Constructor\r\n    constructor(NovaCoin _novacoin) public {\r\n        novacoin = _novacoin;\r\n    }\r\n\r\n    event TokensPurchased(\r\n    address account,\r\n    address novacoin,\r\n    uint amount,\r\n    uint rate\r\n  );\r\n\r\n  event TokensSold(\r\n    address account,\r\n    address novacoin,\r\n    uint amount,\r\n    uint rate\r\n  );\r\n\r\n  function buyTokens() public payable {\r\n    // Calculate the number of tokens to buy\r\n    uint tokenAmount = msg.value * rate;\r\n\r\n    // Require that EthSwap has enough tokens\r\n    require(novacoin.balanceOf(address(this)) >= tokenAmount);\r\n\r\n    // Transfer tokens to the user\r\n    novacoin.transfer(msg.sender, tokenAmount);\r\n\r\n    // Emit an event\r\n    emit TokensPurchased(msg.sender, address(novacoin), tokenAmount, rate);\r\n  }\r\n\r\n   function sellTokens(uint _amount) public {\r\n    // User can't sell more tokens than they have\r\n    require(novacoin.balanceOf(msg.sender) >= _amount);\r\n\r\n    // Calculate the amount of Ether to redeem\r\n    uint etherAmount = _amount / rate;\r\n\r\n    // Require that EthSwap has enough Ether\r\n    require(address(this).balance >= etherAmount);\r\n\r\n    // Perform sale\r\n    novacoin.transferFrom(msg.sender, address(this), _amount);\r\n    msg.sender.transfer(etherAmount);\r\n\r\n    // Emit an event\r\n    emit TokensSold(msg.sender, address(novacoin), _amount, rate);\r\n}\r\n\r\n\r\n}\r\n\r\n\r\n",
  "sourcePath": "C:\\Users\\ADMIN\\eth_swap_dapp\\src\\contracts\\EthSwap.sol",
  "compiler": {
    "name": "solc",
    "version": "0.4.26+commit.4563c3fc.Emscripten.clang"
  },
  "schemaVersion": "3.0.23",
  "updatedAt": "2024-03-08T14:44:57.418Z",
  "networkType": "ethereum",
  "devdoc": {
    "methods": {}
  },
  "userdoc": {
    "methods": {}
  }
}